{
  "_format": "hh-sol-artifact-1",
  "contractName": "CoperachaWallet",
  "sourceName": "contracts/CoperachaWallet.sol",
  "abi": [
    {
      "inputs": [
        {
          "internalType": "string",
          "name": "_name",
          "type": "string"
        },
        {
          "internalType": "address[]",
          "name": "_members",
          "type": "address[]"
        }
      ],
      "stateMutability": "nonpayable",
      "type": "constructor"
    },
    {
      "anonymous": false,
      "inputs": [
        {
          "indexed": true,
          "internalType": "address",
          "name": "depositor",
          "type": "address"
        },
        {
          "indexed": false,
          "internalType": "uint256",
          "name": "amount",
          "type": "uint256"
        }
      ],
      "name": "DepositMade",
      "type": "event"
    },
    {
      "anonymous": false,
      "inputs": [
        {
          "indexed": true,
          "internalType": "address",
          "name": "newMember",
          "type": "address"
        }
      ],
      "name": "MemberAdded",
      "type": "event"
    },
    {
      "anonymous": false,
      "inputs": [
        {
          "indexed": true,
          "internalType": "uint256",
          "name": "proposalId",
          "type": "uint256"
        },
        {
          "indexed": false,
          "internalType": "enum CoperachaWallet.ProposalType",
          "name": "proposalType",
          "type": "uint8"
        },
        {
          "indexed": false,
          "internalType": "address",
          "name": "proposer",
          "type": "address"
        }
      ],
      "name": "ProposalCreated",
      "type": "event"
    },
    {
      "anonymous": false,
      "inputs": [
        {
          "indexed": true,
          "internalType": "uint256",
          "name": "proposalId",
          "type": "uint256"
        }
      ],
      "name": "ProposalExecuted",
      "type": "event"
    },
    {
      "anonymous": false,
      "inputs": [
        {
          "indexed": true,
          "internalType": "uint256",
          "name": "proposalId",
          "type": "uint256"
        }
      ],
      "name": "ProposalRejected",
      "type": "event"
    },
    {
      "anonymous": false,
      "inputs": [
        {
          "indexed": true,
          "internalType": "uint256",
          "name": "proposalId",
          "type": "uint256"
        },
        {
          "indexed": true,
          "internalType": "address",
          "name": "voter",
          "type": "address"
        },
        {
          "indexed": false,
          "internalType": "bool",
          "name": "inFavor",
          "type": "bool"
        }
      ],
      "name": "VoteCasted",
      "type": "event"
    },
    {
      "anonymous": false,
      "inputs": [
        {
          "indexed": true,
          "internalType": "address",
          "name": "recipient",
          "type": "address"
        },
        {
          "indexed": false,
          "internalType": "uint256",
          "name": "amount",
          "type": "uint256"
        }
      ],
      "name": "WithdrawalExecuted",
      "type": "event"
    },
    {
      "inputs": [],
      "name": "deposit",
      "outputs": [],
      "stateMutability": "payable",
      "type": "function"
    },
    {
      "inputs": [],
      "name": "factory",
      "outputs": [
        {
          "internalType": "address",
          "name": "",
          "type": "address"
        }
      ],
      "stateMutability": "view",
      "type": "function"
    },
    {
      "inputs": [],
      "name": "getAvailableBalance",
      "outputs": [
        {
          "internalType": "uint256",
          "name": "",
          "type": "uint256"
        }
      ],
      "stateMutability": "view",
      "type": "function"
    },
    {
      "inputs": [],
      "name": "getBalance",
      "outputs": [
        {
          "internalType": "uint256",
          "name": "",
          "type": "uint256"
        }
      ],
      "stateMutability": "view",
      "type": "function"
    },
    {
      "inputs": [],
      "name": "getMemberCount",
      "outputs": [
        {
          "internalType": "uint256",
          "name": "",
          "type": "uint256"
        }
      ],
      "stateMutability": "view",
      "type": "function"
    },
    {
      "inputs": [],
      "name": "getMembers",
      "outputs": [
        {
          "internalType": "address[]",
          "name": "",
          "type": "address[]"
        }
      ],
      "stateMutability": "view",
      "type": "function"
    },
    {
      "inputs": [
        {
          "internalType": "uint256",
          "name": "_proposalId",
          "type": "uint256"
        }
      ],
      "name": "getProposalInfo",
      "outputs": [
        {
          "internalType": "uint256",
          "name": "id",
          "type": "uint256"
        },
        {
          "internalType": "enum CoperachaWallet.ProposalType",
          "name": "proposalType",
          "type": "uint8"
        },
        {
          "internalType": "address",
          "name": "proposer",
          "type": "address"
        },
        {
          "internalType": "string",
          "name": "description",
          "type": "string"
        },
        {
          "internalType": "address",
          "name": "recipient",
          "type": "address"
        },
        {
          "internalType": "uint256",
          "name": "amount",
          "type": "uint256"
        },
        {
          "internalType": "address",
          "name": "newMember",
          "type": "address"
        },
        {
          "internalType": "uint256",
          "name": "votesFor",
          "type": "uint256"
        },
        {
          "internalType": "uint256",
          "name": "votesAgainst",
          "type": "uint256"
        },
        {
          "internalType": "enum CoperachaWallet.ProposalStatus",
          "name": "status",
          "type": "uint8"
        }
      ],
      "stateMutability": "view",
      "type": "function"
    },
    {
      "inputs": [],
      "name": "getVaultInfo",
      "outputs": [
        {
          "internalType": "string",
          "name": "_name",
          "type": "string"
        },
        {
          "internalType": "address[]",
          "name": "_members",
          "type": "address[]"
        },
        {
          "internalType": "uint256",
          "name": "balance",
          "type": "uint256"
        },
        {
          "internalType": "uint256",
          "name": "_proposalCounter",
          "type": "uint256"
        }
      ],
      "stateMutability": "view",
      "type": "function"
    },
    {
      "inputs": [
        {
          "internalType": "uint256",
          "name": "_proposalId",
          "type": "uint256"
        },
        {
          "internalType": "address",
          "name": "_voter",
          "type": "address"
        }
      ],
      "name": "hasVoted",
      "outputs": [
        {
          "internalType": "bool",
          "name": "",
          "type": "bool"
        }
      ],
      "stateMutability": "view",
      "type": "function"
    },
    {
      "inputs": [
        {
          "internalType": "address",
          "name": "",
          "type": "address"
        }
      ],
      "name": "isMember",
      "outputs": [
        {
          "internalType": "bool",
          "name": "",
          "type": "bool"
        }
      ],
      "stateMutability": "view",
      "type": "function"
    },
    {
      "inputs": [
        {
          "internalType": "uint256",
          "name": "",
          "type": "uint256"
        }
      ],
      "name": "members",
      "outputs": [
        {
          "internalType": "address",
          "name": "",
          "type": "address"
        }
      ],
      "stateMutability": "view",
      "type": "function"
    },
    {
      "inputs": [],
      "name": "name",
      "outputs": [
        {
          "internalType": "string",
          "name": "",
          "type": "string"
        }
      ],
      "stateMutability": "view",
      "type": "function"
    },
    {
      "inputs": [],
      "name": "proposalCounter",
      "outputs": [
        {
          "internalType": "uint256",
          "name": "",
          "type": "uint256"
        }
      ],
      "stateMutability": "view",
      "type": "function"
    },
    {
      "inputs": [
        {
          "internalType": "uint256",
          "name": "",
          "type": "uint256"
        }
      ],
      "name": "proposals",
      "outputs": [
        {
          "internalType": "uint256",
          "name": "id",
          "type": "uint256"
        },
        {
          "internalType": "enum CoperachaWallet.ProposalType",
          "name": "proposalType",
          "type": "uint8"
        },
        {
          "internalType": "address",
          "name": "proposer",
          "type": "address"
        },
        {
          "internalType": "string",
          "name": "description",
          "type": "string"
        },
        {
          "internalType": "address payable",
          "name": "recipient",
          "type": "address"
        },
        {
          "internalType": "uint256",
          "name": "amount",
          "type": "uint256"
        },
        {
          "internalType": "address",
          "name": "newMember",
          "type": "address"
        },
        {
          "internalType": "uint256",
          "name": "votesFor",
          "type": "uint256"
        },
        {
          "internalType": "uint256",
          "name": "votesAgainst",
          "type": "uint256"
        },
        {
          "internalType": "enum CoperachaWallet.ProposalStatus",
          "name": "status",
          "type": "uint8"
        },
        {
          "internalType": "uint256",
          "name": "createdAt",
          "type": "uint256"
        }
      ],
      "stateMutability": "view",
      "type": "function"
    },
    {
      "inputs": [
        {
          "internalType": "string",
          "name": "_description",
          "type": "string"
        },
        {
          "internalType": "address",
          "name": "_newMember",
          "type": "address"
        }
      ],
      "name": "proposeAddMember",
      "outputs": [
        {
          "internalType": "uint256",
          "name": "",
          "type": "uint256"
        }
      ],
      "stateMutability": "nonpayable",
      "type": "function"
    },
    {
      "inputs": [
        {
          "internalType": "string",
          "name": "_description",
          "type": "string"
        },
        {
          "internalType": "address payable",
          "name": "_recipient",
          "type": "address"
        },
        {
          "internalType": "uint256",
          "name": "_amount",
          "type": "uint256"
        }
      ],
      "name": "proposeWithdrawal",
      "outputs": [
        {
          "internalType": "uint256",
          "name": "",
          "type": "uint256"
        }
      ],
      "stateMutability": "nonpayable",
      "type": "function"
    },
    {
      "inputs": [],
      "name": "reservedFunds",
      "outputs": [
        {
          "internalType": "uint256",
          "name": "",
          "type": "uint256"
        }
      ],
      "stateMutability": "view",
      "type": "function"
    },
    {
      "inputs": [
        {
          "internalType": "uint256",
          "name": "_proposalId",
          "type": "uint256"
        },
        {
          "internalType": "bool",
          "name": "_inFavor",
          "type": "bool"
        }
      ],
      "name": "vote",
      "outputs": [],
      "stateMutability": "nonpayable",
      "type": "function"
    },
    {
      "stateMutability": "payable",
      "type": "receive"
    }
  ],
  "bytecode": "0x60806040523480156200001157600080fd5b5060405162001f4b38038062001f4b83398101604081905262000034916200039b565b6002815110156200008c5760405162461bcd60e51b815260206004820152601b60248201527f4174206c656173742032206d656d62657273207265717569726564000000000060448201526064015b60405180910390fd5b6000825111620000df5760405162461bcd60e51b815260206004820152601460248201527f4e616d652063616e6e6f7420626520656d707479000000000000000000000000604482015260640162000083565b6000620000ed838262000508565b50600180546001600160a01b0319163317905560005b8151811015620002aa5760006001600160a01b03168282815181106200012d576200012d620005d4565b60200260200101516001600160a01b0316036200017f5760405162461bcd60e51b815260206004820152600f60248201526e496e76616c6964206164647265737360881b604482015260640162000083565b60036000838381518110620001985762000198620005d4565b6020908102919091018101516001600160a01b031682528101919091526040016000205460ff1615620002015760405162461bcd60e51b815260206004820152601060248201526f223ab83634b1b0ba329036b2b6b132b960811b604482015260640162000083565b6002828281518110620002185762000218620005d4565b60209081029190910181015182546001808201855560009485529284200180546001600160a01b0319166001600160a01b03909216919091179055835190916003918590859081106200026f576200026f620005d4565b6020908102919091018101516001600160a01b03168252810191909152604001600020805460ff191691151591909117905560010162000103565b505050620005ea565b634e487b7160e01b600052604160045260246000fd5b604051601f8201601f191681016001600160401b0381118282101715620002f457620002f4620002b3565b604052919050565b600082601f8301126200030e57600080fd5b815160206001600160401b038211156200032c576200032c620002b3565b8160051b6200033d828201620002c9565b92835284810182019282810190878511156200035857600080fd5b83870192505b84831015620003905782516001600160a01b0381168114620003805760008081fd5b825291830191908301906200035e565b979650505050505050565b60008060408385031215620003af57600080fd5b82516001600160401b0380821115620003c757600080fd5b818501915085601f830112620003dc57600080fd5b815181811115620003f157620003f1620002b3565b602062000407601f8301601f19168201620002c9565b82815288828487010111156200041c57600080fd5b60005b838110156200043c5785810183015182820184015282016200041f565b5060009281018201929092528601519094509150808211156200045e57600080fd5b506200046d85828601620002fc565b9150509250929050565b600181811c908216806200048c57607f821691505b602082108103620004ad57634e487b7160e01b600052602260045260246000fd5b50919050565b601f82111562000503576000816000526020600020601f850160051c81016020861015620004de5750805b601f850160051c820191505b81811015620004ff57828155600101620004ea565b5050505b505050565b81516001600160401b03811115620005245762000524620002b3565b6200053c8162000535845462000477565b84620004b3565b602080601f8311600181146200057457600084156200055b5750858301515b600019600386901b1c1916600185901b178555620004ff565b600085815260208120601f198616915b82811015620005a55788860151825594840194600190910190840162000584565b5085821015620005c45787850151600019600388901b60f8161c191681555b5050505050600190811b01905550565b634e487b7160e01b600052603260045260246000fd5b61195180620005fa6000396000f3fe60806040526004361061010d5760003560e01c8063809dab6a11610095578063a230c52411610064578063a230c52414610340578063bc903cb814610370578063c45a0155146103a6578063c9d27afe146103c6578063d0e30db0146103e857600080fd5b8063809dab6a146102d4578063997072f7146102e95780639eab5253146102fe5780639f3736901461032057600080fd5b806312065fe0116100dc57806312065fe0146101f45780634385963214610207578063509c5df6146102615780635daf08ca146102775780637f98aa71146102af57600080fd5b8063013cf08b1461014e5780630341b59c1461018e57806306fdde03146101bc5780630c0512e9146101de57600080fd5b366101495760405134815233907fd15c9547ea5c06670c0010ce19bc32d54682a4b3801ece7f3ab0c3f17106b4bb9060200160405180910390a2005b600080fd5b34801561015a57600080fd5b5061016e6101693660046112e5565b6103f0565b6040516101859b9a9998979695949392919061137e565b60405180910390f35b34801561019a57600080fd5b506101ae6101a93660046114bd565b6104f0565b604051908152602001610185565b3480156101c857600080fd5b506101d16106f4565b604051610185919061150f565b3480156101ea57600080fd5b506101ae60045481565b34801561020057600080fd5b50476101ae565b34801561021357600080fd5b50610251610222366004611529565b60008281526005602090815260408083206001600160a01b038516845260080190915290205460ff1692915050565b6040519015158152602001610185565b34801561026d57600080fd5b506101ae60065481565b34801561028357600080fd5b506102976102923660046112e5565b610782565b6040516001600160a01b039091168152602001610185565b3480156102bb57600080fd5b506102c46107ac565b6040516101859493929190611593565b3480156102e057600080fd5b506101ae6108b0565b3480156102f557600080fd5b506002546101ae565b34801561030a57600080fd5b506103136108c5565b60405161018591906115cc565b34801561032c57600080fd5b506101ae61033b3660046115df565b610927565b34801561034c57600080fd5b5061025161035b366004611639565b60036020526000908152604090205460ff1681565b34801561037c57600080fd5b5061039061038b3660046112e5565b610bd1565b6040516101859a99989796959493929190611656565b3480156103b257600080fd5b50600154610297906001600160a01b031681565b3480156103d257600080fd5b506103e66103e13660046116d2565b610cf1565b005b6103e6610ea2565b600560205260009081526040902080546001820154600283018054929360ff8316936101009093046001600160a01b03169290919061042e906116fc565b80601f016020809104026020016040519081016040528092919081815260200182805461045a906116fc565b80156104a75780601f1061047c576101008083540402835291602001916104a7565b820191906000526020600020905b81548152906001019060200180831161048a57829003601f168201915b505050600384015460048501546005860154600687015460078801546009890154600a9099015497986001600160a01b0395861698949750929094169450929160ff909116908b565b3360009081526003602052604081205460ff166105285760405162461bcd60e51b815260040161051f90611736565b60405180910390fd5b6001600160a01b0382166105705760405162461bcd60e51b815260206004820152600f60248201526e496e76616c6964206164647265737360881b604482015260640161051f565b6001600160a01b03821660009081526003602052604090205460ff16156105d95760405162461bcd60e51b815260206004820152601d60248201527f416c72656164792061206d656d626572206f6620746865207661756c74000000604482015260640161051f565b600083511161062a5760405162461bcd60e51b815260206004820152601b60248201527f4465736372697074696f6e2063616e6e6f7420626520656d7074790000000000604482015260640161051f565b600480546000918261063b83611783565b909155506000818152600560205260409020818155600180820180546001600160a81b03191633610100021790911790559091506002810161067d86826117ed565b506005810180546001600160a01b0319166001600160a01b03861617905560098101805460ff1916905542600a82015560405182907f3263432a41f78a4701cc9465f62411ed717ade32290c084135a3dd6b29f4bf28906106e29060019033906118ad565b60405180910390a25090505b92915050565b60008054610701906116fc565b80601f016020809104026020016040519081016040528092919081815260200182805461072d906116fc565b801561077a5780601f1061074f5761010080835404028352916020019161077a565b820191906000526020600020905b81548152906001019060200180831161075d57829003601f168201915b505050505081565b6002818154811061079257600080fd5b6000918252602090912001546001600160a01b0316905081565b60608060008060006002476004548380546107c6906116fc565b80601f01602080910402602001604051908101604052809291908181526020018280546107f2906116fc565b801561083f5780601f106108145761010080835404028352916020019161083f565b820191906000526020600020905b81548152906001019060200180831161082257829003601f168201915b505050505093508280548060200260200160405190810160405280929190818152602001828054801561089b57602002820191906000526020600020905b81546001600160a01b0316815260019091019060200180831161087d575b50505050509250935093509350935090919293565b6000600654476108c091906118d3565b905090565b6060600280548060200260200160405190810160405280929190818152602001828054801561091d57602002820191906000526020600020905b81546001600160a01b031681526001909101906020018083116108ff575b5050505050905090565b3360009081526003602052604081205460ff166109565760405162461bcd60e51b815260040161051f90611736565b600082116109a65760405162461bcd60e51b815260206004820152601d60248201527f416d6f756e74206d7573742062652067726561746572207468616e2030000000604482015260640161051f565b6001600160a01b0383166109fc5760405162461bcd60e51b815260206004820152601960248201527f496e76616c696420726563697069656e74206164647265737300000000000000604482015260640161051f565b6000845111610a4d5760405162461bcd60e51b815260206004820152601b60248201527f4465736372697074696f6e2063616e6e6f7420626520656d7074790000000000604482015260640161051f565b600060065447610a5d91906118d3565b905080831115610aea5760405162461bcd60e51b815260206004820152604c60248201527f496e73756666696369656e7420617661696c61626c652066756e64732028736f60448201527f6d652066756e64732061726520726573657276656420666f722070656e64696e60648201526b672070726f706f73616c732960a01b608482015260a40161051f565b6004805460009182610afb83611783565b9091555060008181526005602052604090208181556001810180546001600160a81b031916336101000217905590915060028101610b3988826117ed565b506003810180546001600160a01b0319166001600160a01b0388161790556004810185905560098101805460ff1916905560068054869190600090610b7f9084906118e6565b909155505042600a82015560405182907f3263432a41f78a4701cc9465f62411ed717ade32290c084135a3dd6b29f4bf2890610bbf9060009033906118ad565b60405180910390a25095945050505050565b600081815260056020819052604082208054600182015460038301546004840154948401546006850154600786015460098701546002880180548b9a8b9a60609a8c9a8b9a8b9a8b9a8b9a8b9a9699959860ff808716996001600160a01b0361010090980488169996881697909695169416908790610c4f906116fc565b80601f0160208091040260200160405190810160405280929190818152602001828054610c7b906116fc565b8015610cc85780601f10610c9d57610100808354040283529160200191610cc8565b820191906000526020600020905b815481529060010190602001808311610cab57829003601f168201915b505050505096509a509a509a509a509a509a509a509a509a509a50509193959799509193959799565b816000808281526005602052604090206009015460ff166002811115610d1957610d196112fe565b14610d665760405162461bcd60e51b815260206004820152601760248201527f50726f706f73616c206973206e6f742070656e64696e67000000000000000000604482015260640161051f565b3360009081526003602052604090205460ff16610d955760405162461bcd60e51b815260040161051f90611736565b6000838152600560209081526040808320338452600881019092529091205460ff1615610e045760405162461bcd60e51b815260206004820152601e60248201527f416c726561647920766f746564206f6e20746869732070726f706f73616c0000604482015260640161051f565b3360009081526008820160205260409020805460ff191660011790558215610e4257600681018054906000610e3883611783565b9190505550610e5a565b600781018054906000610e5483611783565b91905055505b6040518315158152339085907f5aaa9aad7433112662b9e5ae23b96ed62b00035f413ab908c55607284e0804e29060200160405180910390a3610e9c84610f58565b50505050565b3360009081526003602052604090205460ff16610ed15760405162461bcd60e51b815260040161051f90611736565b60003411610f215760405162461bcd60e51b815260206004820152601860248201527f4d757374206465706f736974206d6f7265207468616e20300000000000000000604482015260640161051f565b60405134815233907fd15c9547ea5c06670c0010ce19bc32d54682a4b3801ece7f3ab0c3f17106b4bb9060200160405180910390a2565b60008181526005602052604081206002546007820154600683015492939192610f8191906118e6565b90506000610f906002846118f9565b610f9b9060016118e6565b90508084600601541061105c5760098401805460ff191660019081179091558085015460009160ff90911690811115610fd657610fd66112fe565b0361100557610fe4856110f4565b836004015460066000828254610ffa91906118d3565b9091555061102c9050565b60018481015460ff168181111561101e5761101e6112fe565b0361102c5761102c856111d9565b60405185907f712ae1383f79ac853f8d882153778e0260ef8f03b504e2866e0593e04d2b291f90600090a26110ed565b828214801561106e5750808460060154105b156110ed5760098401805460ff1916600217905560018085015460009160ff909116908111156110a0576110a06112fe565b036110c1578360040154600660008282546110bb91906118d3565b90915550505b60405185907fd92fba445edb3153b571e6df782d7a66fd0ce668519273670820ee3a86da0ef490600090a25b5050505050565b6000818152600560205260409020600481015447101561114b5760405162461bcd60e51b8152602060048201526012602482015271496e73756666696369656e742066756e647360701b604482015260640161051f565b600381015460048201546040516001600160a01b039092169181156108fc0291906000818181858888f1935050505015801561118b573d6000803e3d6000fd5b50600381015460048201546040519081526001600160a01b03909116907f1131c2afe9ce72c59360d085f89bfdd088fcf4a3c93eec6cc5ff42f5d6b0801f9060200160405180910390a25050565b600081815260056020818152604080842092830180546002805460018082019092557f405787fa12a823e0f2b7631cc41b3ba8828b3321ca811111fa75cd3aa3bb5ace0180546001600160a01b0319166001600160a01b03938416179055825482168752600390945294829020805460ff191684179055915491549051632606bd5360e11b8152908416600482015291921690634c0d7aa690602401600060405180830381600087803b15801561128f57600080fd5b505af11580156112a3573d6000803e3d6000fd5b50505060058201546040516001600160a01b0390911691507fb251eb052afc73ffd02ffe85ad79990a8b3fed60d76dbc2fa2fdd7123dffd91490600090a25050565b6000602082840312156112f757600080fd5b5035919050565b634e487b7160e01b600052602160045260246000fd5b60028110611324576113246112fe565b9052565b6000815180845260005b8181101561134e57602081850181015186830182015201611332565b506000602082860101526020601f19601f83011685010191505092915050565b60038110611324576113246112fe565b60006101608d8352611393602084018e611314565b6001600160a01b038c81166040850152606084018290526113b68285018d611328565b9250808b1660808501528960a085015280891660c085015250508560e0830152846101008301526113eb61012083018561136e565b826101408301529c9b505050505050505050505050565b634e487b7160e01b600052604160045260246000fd5b600082601f83011261142957600080fd5b813567ffffffffffffffff8082111561144457611444611402565b604051601f8301601f19908116603f0116810190828211818310171561146c5761146c611402565b8160405283815286602085880101111561148557600080fd5b836020870160208301376000602085830101528094505050505092915050565b6001600160a01b03811681146114ba57600080fd5b50565b600080604083850312156114d057600080fd5b823567ffffffffffffffff8111156114e757600080fd5b6114f385828601611418565b9250506020830135611504816114a5565b809150509250929050565b6020815260006115226020830184611328565b9392505050565b6000806040838503121561153c57600080fd5b823591506020830135611504816114a5565b60008151808452602080850194506020840160005b838110156115885781516001600160a01b031687529582019590820190600101611563565b509495945050505050565b6080815260006115a66080830187611328565b82810360208401526115b8818761154e565b604084019590955250506060015292915050565b602081526000611522602083018461154e565b6000806000606084860312156115f457600080fd5b833567ffffffffffffffff81111561160b57600080fd5b61161786828701611418565b9350506020840135611628816114a5565b929592945050506040919091013590565b60006020828403121561164b57600080fd5b8135611522816114a5565b60006101408c835261166b602084018d611314565b6001600160a01b038b811660408501526060840182905261168e8285018c611328565b9250808a1660808501528860a085015280881660c085015250508460e0830152836101008301526116c361012083018461136e565b9b9a5050505050505050505050565b600080604083850312156116e557600080fd5b823591506020830135801515811461150457600080fd5b600181811c9082168061171057607f821691505b60208210810361173057634e487b7160e01b600052602260045260246000fd5b50919050565b6020808252601a908201527f4e6f742061206d656d626572206f662074686973207661756c74000000000000604082015260600190565b634e487b7160e01b600052601160045260246000fd5b6000600182016117955761179561176d565b5060010190565b601f8211156117e8576000816000526020600020601f850160051c810160208610156117c55750805b601f850160051c820191505b818110156117e4578281556001016117d1565b5050505b505050565b815167ffffffffffffffff81111561180757611807611402565b61181b8161181584546116fc565b8461179c565b602080601f83116001811461185057600084156118385750858301515b600019600386901b1c1916600185901b1785556117e4565b600085815260208120601f198616915b8281101561187f57888601518255948401946001909101908401611860565b508582101561189d5787850151600019600388901b60f8161c191681555b5050505050600190811b01905550565b604081016118bb8285611314565b6001600160a01b039290921660209190910152919050565b818103818111156106ee576106ee61176d565b808201808211156106ee576106ee61176d565b60008261191657634e487b7160e01b600052601260045260246000fd5b50049056fea2646970667358221220f8741d08c88db84f634ad5a7f3a606614d243363de89ac2c5bcbad3f9e6c214d64736f6c63430008180033",
  "linkReferences": {},
  "deployedLinkReferences": {}
}