{
  "_format": "hh-sol-artifact-1",
  "contractName": "CoperachaFactory",
  "sourceName": "contracts/CoperachaFactory.sol",
  "abi": [
    {
      "anonymous": false,
      "inputs": [
        {
          "indexed": true,
          "internalType": "address",
          "name": "vaultAddress",
          "type": "address"
        },
        {
          "indexed": false,
          "internalType": "string",
          "name": "name",
          "type": "string"
        },
        {
          "indexed": false,
          "internalType": "address[]",
          "name": "members",
          "type": "address[]"
        },
        {
          "indexed": true,
          "internalType": "address",
          "name": "creator",
          "type": "address"
        },
        {
          "indexed": false,
          "internalType": "uint256",
          "name": "timestamp",
          "type": "uint256"
        }
      ],
      "name": "VaultCreated",
      "type": "event"
    },
    {
      "inputs": [
        {
          "internalType": "uint256",
          "name": "",
          "type": "uint256"
        }
      ],
      "name": "allVaults",
      "outputs": [
        {
          "internalType": "address",
          "name": "",
          "type": "address"
        }
      ],
      "stateMutability": "view",
      "type": "function"
    },
    {
      "inputs": [
        {
          "internalType": "string",
          "name": "_name",
          "type": "string"
        },
        {
          "internalType": "address[]",
          "name": "_members",
          "type": "address[]"
        }
      ],
      "name": "createVault",
      "outputs": [
        {
          "internalType": "address",
          "name": "vaultAddress",
          "type": "address"
        }
      ],
      "stateMutability": "nonpayable",
      "type": "function"
    },
    {
      "inputs": [],
      "name": "getAllVaults",
      "outputs": [
        {
          "internalType": "address[]",
          "name": "",
          "type": "address[]"
        }
      ],
      "stateMutability": "view",
      "type": "function"
    },
    {
      "inputs": [],
      "name": "getTotalVaults",
      "outputs": [
        {
          "internalType": "uint256",
          "name": "",
          "type": "uint256"
        }
      ],
      "stateMutability": "view",
      "type": "function"
    },
    {
      "inputs": [
        {
          "internalType": "address",
          "name": "_user",
          "type": "address"
        }
      ],
      "name": "getUserVaultCount",
      "outputs": [
        {
          "internalType": "uint256",
          "name": "",
          "type": "uint256"
        }
      ],
      "stateMutability": "view",
      "type": "function"
    },
    {
      "inputs": [
        {
          "internalType": "address",
          "name": "_user",
          "type": "address"
        }
      ],
      "name": "getUserVaults",
      "outputs": [
        {
          "internalType": "address[]",
          "name": "",
          "type": "address[]"
        }
      ],
      "stateMutability": "view",
      "type": "function"
    },
    {
      "inputs": [
        {
          "internalType": "address",
          "name": "_vaultAddress",
          "type": "address"
        }
      ],
      "name": "getVaultInfo",
      "outputs": [
        {
          "internalType": "string",
          "name": "name",
          "type": "string"
        },
        {
          "internalType": "address[]",
          "name": "members",
          "type": "address[]"
        },
        {
          "internalType": "uint256",
          "name": "balance",
          "type": "uint256"
        },
        {
          "internalType": "uint256",
          "name": "proposalCounter",
          "type": "uint256"
        }
      ],
      "stateMutability": "view",
      "type": "function"
    },
    {
      "inputs": [
        {
          "internalType": "uint256",
          "name": "_start",
          "type": "uint256"
        },
        {
          "internalType": "uint256",
          "name": "_end",
          "type": "uint256"
        }
      ],
      "name": "getVaultsByRange",
      "outputs": [
        {
          "internalType": "address[]",
          "name": "",
          "type": "address[]"
        }
      ],
      "stateMutability": "view",
      "type": "function"
    },
    {
      "inputs": [
        {
          "internalType": "address",
          "name": "_vault",
          "type": "address"
        }
      ],
      "name": "isValidVault",
      "outputs": [
        {
          "internalType": "bool",
          "name": "",
          "type": "bool"
        }
      ],
      "stateMutability": "view",
      "type": "function"
    },
    {
      "inputs": [
        {
          "internalType": "address",
          "name": "",
          "type": "address"
        }
      ],
      "name": "isVault",
      "outputs": [
        {
          "internalType": "bool",
          "name": "",
          "type": "bool"
        }
      ],
      "stateMutability": "view",
      "type": "function"
    },
    {
      "inputs": [
        {
          "internalType": "address",
          "name": "",
          "type": "address"
        },
        {
          "internalType": "uint256",
          "name": "",
          "type": "uint256"
        }
      ],
      "name": "userVaults",
      "outputs": [
        {
          "internalType": "address",
          "name": "",
          "type": "address"
        }
      ],
      "stateMutability": "view",
      "type": "function"
    }
  ],
  "bytecode": "0x608060405234801561001057600080fd5b50612bef806100206000396000f3fe60806040523480156200001157600080fd5b5060043610620000b75760003560e01c806390229af7116200007a57806390229af714620001905780639094a91e14620001b957806397331bf914620001e95780639c841fef14620001f3578063e7f3c69c146200020a578063fc4e5007146200022157600080fd5b80634d93ef7114620000bc5780635486f10014620000eb5780636421945014620000fe578063652b9b41146200013e578063828edbe81462000164575b600080fd5b620000d3620000cd366004620008ad565b62000238565b604051620000e2919062000917565b60405180910390f35b6000545b604051908152602001620000e2565b6200012d6200010f3660046200094c565b6001600160a01b031660009081526002602052604090205460ff1690565b6040519015158152602001620000e2565b6200012d6200014f3660046200094c565b60026020526000908152604090205460ff1681565b620000ef620001753660046200094c565b6001600160a01b031660009081526001602052604090205490565b620001a7620001a13660046200094c565b620003ad565b604051620000e29493929190620009c0565b620001d0620001ca366004620009fd565b62000490565b6040516001600160a01b039091168152602001620000e2565b620000d3620004bb565b620001d06200020436600462000a17565b6200051f565b620000d36200021b3660046200094c565b62000558565b620001d06200023236600462000ae2565b620005d0565b60608183106200027f5760405162461bcd60e51b815260206004820152600d60248201526c496e76616c69642072616e676560981b60448201526064015b60405180910390fd5b600054821115620002c65760405162461bcd60e51b815260206004820152601060248201526f456e64206f7574206f662072616e676560801b604482015260640162000276565b6000620002d4848462000c16565b905060008167ffffffffffffffff811115620002f457620002f462000a46565b6040519080825280602002602001820160405280156200031e578160200160208202803683370190505b50905060005b82811015620003a25760006200033b828862000c2c565b815481106200034e576200034e62000c42565b9060005260206000200160009054906101000a90046001600160a01b031682828151811062000381576200038162000c42565b6001600160a01b039092166020928302919091019091015260010162000324565b509150505b92915050565b6001600160a01b0381166000908152600260205260408120546060918291819060ff16620004125760405162461bcd60e51b8152602060048201526011602482015270139bdd0818481d985b1a59081d985d5b1d607a1b604482015260640162000276565b6000859050806001600160a01b0316637f98aa716040518163ffffffff1660e01b8152600401600060405180830381865afa15801562000456573d6000803e3d6000fd5b505050506040513d6000823e601f3d908101601f1916820160405262000480919081019062000cd4565b9450945094509450509193509193565b60008181548110620004a157600080fd5b6000918252602090912001546001600160a01b0316905081565b606060008054806020026020016040519081016040528092919081815260200182805480156200051557602002820191906000526020600020905b81546001600160a01b03168152600190910190602001808311620004f6575b5050505050905090565b600160205281600052604060002081815481106200053c57600080fd5b6000918252602090912001546001600160a01b03169150829050565b6001600160a01b038116600090815260016020908152604091829020805483518184028101840190945280845260609392830182828015620005c457602002820191906000526020600020905b81546001600160a01b03168152600190910190602001808311620005a5575b50505050509050919050565b6000600282511015620006265760405162461bcd60e51b815260206004820152601b60248201527f4174206c656173742032206d656d626572732072657175697265640000000000604482015260640162000276565b6000835111620006705760405162461bcd60e51b81526020600482015260146024820152734e616d652063616e6e6f7420626520656d70747960601b604482015260640162000276565b6000805b8351811015620006c757336001600160a01b03168482815181106200069d576200069d62000c42565b60200260200101516001600160a01b031603620006be5760019150620006c7565b60010162000674565b5080620007235760405162461bcd60e51b815260206004820152602360248201527f43726561746f72206d75737420626520696e20746865206d656d62657273206c6044820152621a5cdd60ea1b606482015260840162000276565b6000848460405162000735906200089f565b6200074292919062000d92565b604051809103906000f0801580156200075f573d6000803e3d6000fd5b5060008054600180820183557f290decd9548b62a8d60345a988386fc84ba6bc95484008f6362f93160ef3e56390910180546001600160a01b0319166001600160a01b0385169081179091558252600260205260408220805460ff191690911790559093508391505b8451811015620008455760016000868381518110620007eb57620007eb62000c42565b6020908102919091018101516001600160a01b03908116835282820193909352604090910160009081208054600180820183559183529290912090910180546001600160a01b0319169287169290921790915501620007c8565b50336001600160a01b0316836001600160a01b03167fae4c797921f1018252c8a5cba2e691e90e4b8c67720b1de878318cdb52d2eb7a8787426040516200088f9392919062000dc4565b60405180910390a3505092915050565b611dbb8062000dff83390190565b60008060408385031215620008c157600080fd5b50508035926020909101359150565b60008151808452602080850194506020840160005b838110156200090c5781516001600160a01b031687529582019590820190600101620008e5565b509495945050505050565b6020815260006200092c6020830184620008d0565b9392505050565b6001600160a01b03811681146200094957600080fd5b50565b6000602082840312156200095f57600080fd5b81356200092c8162000933565b60005b83811015620009895781810151838201526020016200096f565b50506000910152565b60008151808452620009ac8160208601602086016200096c565b601f01601f19169290920160200192915050565b608081526000620009d5608083018762000992565b8281036020840152620009e98187620008d0565b604084019590955250506060015292915050565b60006020828403121562000a1057600080fd5b5035919050565b6000806040838503121562000a2b57600080fd5b823562000a388162000933565b946020939093013593505050565b634e487b7160e01b600052604160045260246000fd5b604051601f8201601f1916810167ffffffffffffffff8111828210171562000a885762000a8862000a46565b604052919050565b600067ffffffffffffffff82111562000aad5762000aad62000a46565b50601f01601f191660200190565b600067ffffffffffffffff82111562000ad85762000ad862000a46565b5060051b60200190565b6000806040838503121562000af657600080fd5b823567ffffffffffffffff8082111562000b0f57600080fd5b818501915085601f83011262000b2457600080fd5b8135602062000b3d62000b378362000a90565b62000a5c565b828152888284870101111562000b5257600080fd5b828286018383013760009281018201839052955090925085810135908282111562000b7b578384fd5b818701925087601f84011262000b8f578384fd5b8235915062000ba262000b378362000abb565b82815260059290921b8301810191818101908984111562000bc1578586fd5b82850195505b8386101562000bf0578535945062000bdf8562000933565b848252948201949082019062000bc7565b8096505050505050509250929050565b634e487b7160e01b600052601160045260246000fd5b81810381811115620003a757620003a762000c00565b80820180821115620003a757620003a762000c00565b634e487b7160e01b600052603260045260246000fd5b600082601f83011262000c6a57600080fd5b8151602062000c7d62000b378362000abb565b8083825260208201915060208460051b87010193508684111562000ca057600080fd5b602086015b8481101562000cc957805162000cbb8162000933565b835291830191830162000ca5565b509695505050505050565b6000806000806080858703121562000ceb57600080fd5b845167ffffffffffffffff8082111562000d0457600080fd5b818701915087601f83011262000d1957600080fd5b815162000d2a62000b378262000a90565b81815289602083860101111562000d4057600080fd5b62000d538260208301602087016200096c565b60208901519097509250508082111562000d6c57600080fd5b5062000d7b8782880162000c58565b604087015160609097015195989097509350505050565b60408152600062000da7604083018562000992565b828103602084015262000dbb8185620008d0565b95945050505050565b60608152600062000dd9606083018662000992565b828103602084015262000ded8186620008d0565b91505082604083015294935050505056fe60806040523480156200001157600080fd5b5060405162001dbb38038062001dbb83398101604081905262000034916200039b565b6002815110156200008c5760405162461bcd60e51b815260206004820152601b60248201527f4174206c656173742032206d656d62657273207265717569726564000000000060448201526064015b60405180910390fd5b6000825111620000df5760405162461bcd60e51b815260206004820152601460248201527f4e616d652063616e6e6f7420626520656d707479000000000000000000000000604482015260640162000083565b6000620000ed838262000508565b50600180546001600160a01b0319163317905560005b8151811015620002aa5760006001600160a01b03168282815181106200012d576200012d620005d4565b60200260200101516001600160a01b0316036200017f5760405162461bcd60e51b815260206004820152600f60248201526e496e76616c6964206164647265737360881b604482015260640162000083565b60036000838381518110620001985762000198620005d4565b6020908102919091018101516001600160a01b031682528101919091526040016000205460ff1615620002015760405162461bcd60e51b815260206004820152601060248201526f223ab83634b1b0ba329036b2b6b132b960811b604482015260640162000083565b6002828281518110620002185762000218620005d4565b60209081029190910181015182546001808201855560009485529284200180546001600160a01b0319166001600160a01b03909216919091179055835190916003918590859081106200026f576200026f620005d4565b6020908102919091018101516001600160a01b03168252810191909152604001600020805460ff191691151591909117905560010162000103565b505050620005ea565b634e487b7160e01b600052604160045260246000fd5b604051601f8201601f191681016001600160401b0381118282101715620002f457620002f4620002b3565b604052919050565b600082601f8301126200030e57600080fd5b815160206001600160401b038211156200032c576200032c620002b3565b8160051b6200033d828201620002c9565b92835284810182019282810190878511156200035857600080fd5b83870192505b84831015620003905782516001600160a01b0381168114620003805760008081fd5b825291830191908301906200035e565b979650505050505050565b60008060408385031215620003af57600080fd5b82516001600160401b0380821115620003c757600080fd5b818501915085601f830112620003dc57600080fd5b815181811115620003f157620003f1620002b3565b602062000407601f8301601f19168201620002c9565b82815288828487010111156200041c57600080fd5b60005b838110156200043c5785810183015182820184015282016200041f565b5060009281018201929092528601519094509150808211156200045e57600080fd5b506200046d85828601620002fc565b9150509250929050565b600181811c908216806200048c57607f821691505b602082108103620004ad57634e487b7160e01b600052602260045260246000fd5b50919050565b601f82111562000503576000816000526020600020601f850160051c81016020861015620004de5750805b601f850160051c820191505b81811015620004ff57828155600101620004ea565b5050505b505050565b81516001600160401b03811115620005245762000524620002b3565b6200053c8162000535845462000477565b84620004b3565b602080601f8311600181146200057457600084156200055b5750858301515b600019600386901b1c1916600185901b178555620004ff565b600085815260208120601f198616915b82811015620005a55788860151825594840194600190910190840162000584565b5085821015620005c45787850151600019600388901b60f8161c191681555b5050505050600190811b01905550565b634e487b7160e01b600052603260045260246000fd5b6117c180620005fa6000396000f3fe6080604052600436106100f75760003560e01c8063997072f71161008a578063bc903cb811610059578063bc903cb81461032f578063c45a015514610365578063c9d27afe14610385578063d0e30db0146103a757600080fd5b8063997072f7146102a85780639eab5253146102bd5780639f373690146102df578063a230c524146102ff57600080fd5b806312065fe0116100c657806312065fe0146101de57806343859632146101f15780635daf08ca1461024b5780637f98aa711461028357600080fd5b8063013cf08b146101385780630341b59c1461017857806306fdde03146101a65780630c0512e9146101c857600080fd5b366101335760405134815233907fd15c9547ea5c06670c0010ce19bc32d54682a4b3801ece7f3ab0c3f17106b4bb9060200160405180910390a2005b600080fd5b34801561014457600080fd5b50610158610153366004611168565b6103af565b60405161016f9b9a99989796959493929190611201565b60405180910390f35b34801561018457600080fd5b50610198610193366004611340565b6104af565b60405190815260200161016f565b3480156101b257600080fd5b506101bb6106b3565b60405161016f9190611392565b3480156101d457600080fd5b5061019860045481565b3480156101ea57600080fd5b5047610198565b3480156101fd57600080fd5b5061023b61020c3660046113ac565b60008281526005602090815260408083206001600160a01b038516845260080190915290205460ff1692915050565b604051901515815260200161016f565b34801561025757600080fd5b5061026b610266366004611168565b610741565b6040516001600160a01b03909116815260200161016f565b34801561028f57600080fd5b5061029861076b565b60405161016f9493929190611416565b3480156102b457600080fd5b50600254610198565b3480156102c957600080fd5b506102d261086f565b60405161016f919061144f565b3480156102eb57600080fd5b506101986102fa366004611462565b6108d1565b34801561030b57600080fd5b5061023b61031a3660046114bc565b60036020526000908152604090205460ff1681565b34801561033b57600080fd5b5061034f61034a366004611168565b610b13565b60405161016f9a999897969594939291906114d9565b34801561037157600080fd5b5060015461026b906001600160a01b031681565b34801561039157600080fd5b506103a56103a0366004611555565b610c33565b005b6103a5610de4565b600560205260009081526040902080546001820154600283018054929360ff8316936101009093046001600160a01b0316929091906103ed9061157f565b80601f01602080910402602001604051908101604052809291908181526020018280546104199061157f565b80156104665780601f1061043b57610100808354040283529160200191610466565b820191906000526020600020905b81548152906001019060200180831161044957829003601f168201915b505050600384015460048501546005860154600687015460078801546009890154600a9099015497986001600160a01b0395861698949750929094169450929160ff909116908b565b3360009081526003602052604081205460ff166104e75760405162461bcd60e51b81526004016104de906115b9565b60405180910390fd5b6001600160a01b03821661052f5760405162461bcd60e51b815260206004820152600f60248201526e496e76616c6964206164647265737360881b60448201526064016104de565b6001600160a01b03821660009081526003602052604090205460ff16156105985760405162461bcd60e51b815260206004820152601d60248201527f416c72656164792061206d656d626572206f6620746865207661756c7400000060448201526064016104de565b60008351116105e95760405162461bcd60e51b815260206004820152601b60248201527f4465736372697074696f6e2063616e6e6f7420626520656d707479000000000060448201526064016104de565b60048054600091826105fa83611606565b909155506000818152600560205260409020818155600180820180546001600160a81b03191633610100021790911790559091506002810161063c8682611670565b506005810180546001600160a01b0319166001600160a01b03861617905560098101805460ff1916905542600a82015560405182907f3263432a41f78a4701cc9465f62411ed717ade32290c084135a3dd6b29f4bf28906106a1906001903390611730565b60405180910390a25090505b92915050565b600080546106c09061157f565b80601f01602080910402602001604051908101604052809291908181526020018280546106ec9061157f565b80156107395780601f1061070e57610100808354040283529160200191610739565b820191906000526020600020905b81548152906001019060200180831161071c57829003601f168201915b505050505081565b6002818154811061075157600080fd5b6000918252602090912001546001600160a01b0316905081565b60608060008060006002476004548380546107859061157f565b80601f01602080910402602001604051908101604052809291908181526020018280546107b19061157f565b80156107fe5780601f106107d3576101008083540402835291602001916107fe565b820191906000526020600020905b8154815290600101906020018083116107e157829003601f168201915b505050505093508280548060200260200160405190810160405280929190818152602001828054801561085a57602002820191906000526020600020905b81546001600160a01b0316815260019091019060200180831161083c575b50505050509250935093509350935090919293565b606060028054806020026020016040519081016040528092919081815260200182805480156108c757602002820191906000526020600020905b81546001600160a01b031681526001909101906020018083116108a9575b5050505050905090565b3360009081526003602052604081205460ff166109005760405162461bcd60e51b81526004016104de906115b9565b600082116109505760405162461bcd60e51b815260206004820152601d60248201527f416d6f756e74206d7573742062652067726561746572207468616e203000000060448201526064016104de565b478211156109a05760405162461bcd60e51b815260206004820152601b60248201527f496e73756666696369656e742066756e647320696e207661756c74000000000060448201526064016104de565b6001600160a01b0383166109f65760405162461bcd60e51b815260206004820152601960248201527f496e76616c696420726563697069656e7420616464726573730000000000000060448201526064016104de565b6000845111610a475760405162461bcd60e51b815260206004820152601b60248201527f4465736372697074696f6e2063616e6e6f7420626520656d707479000000000060448201526064016104de565b6004805460009182610a5883611606565b9091555060008181526005602052604090208181556001810180546001600160a81b031916336101000217905590915060028101610a968782611670565b506003810180546001600160a01b0319166001600160a01b0387161790556004810184905560098101805460ff1916905542600a82015560405182907f3263432a41f78a4701cc9465f62411ed717ade32290c084135a3dd6b29f4bf2890610b02906000903390611730565b60405180910390a250949350505050565b600081815260056020819052604082208054600182015460038301546004840154948401546006850154600786015460098701546002880180548b9a8b9a60609a8c9a8b9a8b9a8b9a8b9a8b9a9699959860ff808716996001600160a01b0361010090980488169996881697909695169416908790610b919061157f565b80601f0160208091040260200160405190810160405280929190818152602001828054610bbd9061157f565b8015610c0a5780601f10610bdf57610100808354040283529160200191610c0a565b820191906000526020600020905b815481529060010190602001808311610bed57829003601f168201915b505050505096509a509a509a509a509a509a509a509a509a509a50509193959799509193959799565b816000808281526005602052604090206009015460ff166002811115610c5b57610c5b611181565b14610ca85760405162461bcd60e51b815260206004820152601760248201527f50726f706f73616c206973206e6f742070656e64696e6700000000000000000060448201526064016104de565b3360009081526003602052604090205460ff16610cd75760405162461bcd60e51b81526004016104de906115b9565b6000838152600560209081526040808320338452600881019092529091205460ff1615610d465760405162461bcd60e51b815260206004820152601e60248201527f416c726561647920766f746564206f6e20746869732070726f706f73616c000060448201526064016104de565b3360009081526008820160205260409020805460ff191660011790558215610d8457600681018054906000610d7a83611606565b9190505550610d9c565b600781018054906000610d9683611606565b91905055505b6040518315158152339085907f5aaa9aad7433112662b9e5ae23b96ed62b00035f413ab908c55607284e0804e29060200160405180910390a3610dde84610e9a565b50505050565b3360009081526003602052604090205460ff16610e135760405162461bcd60e51b81526004016104de906115b9565b60003411610e635760405162461bcd60e51b815260206004820152601860248201527f4d757374206465706f736974206d6f7265207468616e2030000000000000000060448201526064016104de565b60405134815233907fd15c9547ea5c06670c0010ce19bc32d54682a4b3801ece7f3ab0c3f17106b4bb9060200160405180910390a2565b60008181526005602052604081206002546007820154600683015492939192610ec39190611756565b90506000610ed2600284611769565b610edd906001611756565b905080846006015410610f825760098401805460ff191660019081179091558085015460009160ff90911690811115610f1857610f18611181565b03610f2b57610f2685610fdb565b610f52565b60018481015460ff1681811115610f4457610f44611181565b03610f5257610f52856110c0565b60405185907f712ae1383f79ac853f8d882153778e0260ef8f03b504e2866e0593e04d2b291f90600090a2610fd4565b8282148015610f945750808460060154105b15610fd45760098401805460ff1916600217905560405185907fd92fba445edb3153b571e6df782d7a66fd0ce668519273670820ee3a86da0ef490600090a25b5050505050565b600081815260056020526040902060048101544710156110325760405162461bcd60e51b8152602060048201526012602482015271496e73756666696369656e742066756e647360701b60448201526064016104de565b600381015460048201546040516001600160a01b039092169181156108fc0291906000818181858888f19350505050158015611072573d6000803e3d6000fd5b50600381015460048201546040519081526001600160a01b03909116907f1131c2afe9ce72c59360d085f89bfdd088fcf4a3c93eec6cc5ff42f5d6b0801f9060200160405180910390a25050565b600081815260056020818152604080842092830180546002805460018181019092557f405787fa12a823e0f2b7631cc41b3ba8828b3321ca811111fa75cd3aa3bb5ace0180546001600160a01b0319166001600160a01b039384161790558254821687526003909452828620805460ff191690941790935554905192939116917fb251eb052afc73ffd02ffe85ad79990a8b3fed60d76dbc2fa2fdd7123dffd9149190a25050565b60006020828403121561117a57600080fd5b5035919050565b634e487b7160e01b600052602160045260246000fd5b600281106111a7576111a7611181565b9052565b6000815180845260005b818110156111d1576020818501810151868301820152016111b5565b506000602082860101526020601f19601f83011685010191505092915050565b600381106111a7576111a7611181565b60006101608d8352611216602084018e611197565b6001600160a01b038c81166040850152606084018290526112398285018d6111ab565b9250808b1660808501528960a085015280891660c085015250508560e08301528461010083015261126e6101208301856111f1565b826101408301529c9b505050505050505050505050565b634e487b7160e01b600052604160045260246000fd5b600082601f8301126112ac57600080fd5b813567ffffffffffffffff808211156112c7576112c7611285565b604051601f8301601f19908116603f011681019082821181831017156112ef576112ef611285565b8160405283815286602085880101111561130857600080fd5b836020870160208301376000602085830101528094505050505092915050565b6001600160a01b038116811461133d57600080fd5b50565b6000806040838503121561135357600080fd5b823567ffffffffffffffff81111561136a57600080fd5b6113768582860161129b565b925050602083013561138781611328565b809150509250929050565b6020815260006113a560208301846111ab565b9392505050565b600080604083850312156113bf57600080fd5b82359150602083013561138781611328565b60008151808452602080850194506020840160005b8381101561140b5781516001600160a01b0316875295820195908201906001016113e6565b509495945050505050565b60808152600061142960808301876111ab565b828103602084015261143b81876113d1565b604084019590955250506060015292915050565b6020815260006113a560208301846113d1565b60008060006060848603121561147757600080fd5b833567ffffffffffffffff81111561148e57600080fd5b61149a8682870161129b565b93505060208401356114ab81611328565b929592945050506040919091013590565b6000602082840312156114ce57600080fd5b81356113a581611328565b60006101408c83526114ee602084018d611197565b6001600160a01b038b81166040850152606084018290526115118285018c6111ab565b9250808a1660808501528860a085015280881660c085015250508460e0830152836101008301526115466101208301846111f1565b9b9a5050505050505050505050565b6000806040838503121561156857600080fd5b823591506020830135801515811461138757600080fd5b600181811c9082168061159357607f821691505b6020821081036115b357634e487b7160e01b600052602260045260246000fd5b50919050565b6020808252601a908201527f4e6f742061206d656d626572206f662074686973207661756c74000000000000604082015260600190565b634e487b7160e01b600052601160045260246000fd5b600060018201611618576116186115f0565b5060010190565b601f82111561166b576000816000526020600020601f850160051c810160208610156116485750805b601f850160051c820191505b8181101561166757828155600101611654565b5050505b505050565b815167ffffffffffffffff81111561168a5761168a611285565b61169e81611698845461157f565b8461161f565b602080601f8311600181146116d357600084156116bb5750858301515b600019600386901b1c1916600185901b178555611667565b600085815260208120601f198616915b82811015611702578886015182559484019460019091019084016116e3565b50858210156117205787850151600019600388901b60f8161c191681555b5050505050600190811b01905550565b6040810161173e8285611197565b6001600160a01b039290921660209190910152919050565b808201808211156106ad576106ad6115f0565b60008261178657634e487b7160e01b600052601260045260246000fd5b50049056fea264697066735822122078d8f3b124ccf0c2808067e59a6aed45f9fc2c96e802e8a2b0edee6ba87fa89e64736f6c63430008180033a2646970667358221220730ef07c73e6950c23e49e26f8ead0827a1db366ff6a2c5648b81eab83500df764736f6c63430008180033",
  "linkReferences": {},
  "deployedLinkReferences": {}
}